:020000040800F2
:10000000E0080020D5000008BD210008BB21000841
:1000100000000000000000000000000000000000E0
:100020000000000000000000000000002D22000879
:1000300000000000000000001522000859220008FE
:10004000E7000008E7000008E7000008E7000008F4
:10005000E7000008E7000008E7000008E7000008E4
:1000600000000000FD080008090900080000000069
:10007000E7000008F1220008E70000080000000087
:10008000E7000008E700000800000000E7000008A3
:1000900000000000E7000008E7000008E700000893
:1000A00000000000E7000008E70000080D2B000832
:1000B000192B000800000000E70000080000000005
:1000C0000348854600F07EFB00480047E90700082A
:1000D000E00800200448804704480047FEE7FEE7A8
:1000E000FEE7FEE7FEE7FEE7C1220008C1000008C8
:1000F00003460B439B0703D009E008C9121F08C041
:10010000042AFAD203E00B780370401C491C521EEB
:10011000F9D27047D2B201E00270401C491EFBD2F6
:1001200070470022F6E710B513460A460446194602
:10013000FFF7F0FF204610BDF0B5074608465840CF
:1001400087B0C00F049048000E4659004008490887
:10015000BC1A884105D2384631461E4617460B4622
:1001600002465800400810434CD0300D0390400523
:100170005900400D490D0590401A0290402872DA4E
:1001800018030121000B090508430190049800920F
:10019000002805D001995242002088410092019028
:1001A000029840210A1A0199009800F002FA0546C7
:1001B0000C466B4607CB00F01DFAC0197141039A3B
:1001C0000E0D0023D71756401A467A40164344D0E6
:1001D000049A002A2DD0029A012A039A15DC1205EE
:1001E000C01A914101263605001C7141D20F059EAF
:1001F000D2070093019202962A46234600F05BFA4A
:1002000007B0F0BD38463146FAE71605224A0F46D8
:10021000B218C01AB74101210905001C4F4100184E
:100220007F41114618187941E20F10436D1964415E
:1002300013E0E2076D0815436408C2071443039AEC
:1002400001261205C01A91413605001C7141CE07E6
:10025000400830434908C01851412A46234600F05F
:100260001DFACDE7FFE7049801224000C117121ADA
:1002700000238B4104983146C417381AA141EEE798
:1002800030B40124E407634030BC55E730B40124A6
:10029000E407614030BC4FE70000E0FFF0B51FB459
:1002A00088B00B990998002448400999C00F49006B
:1002B00049080991C0070B990090490049080B9122
:1002C00009990898A64608431CD00B990A98084338
:1002D00018D0099801244000420D4800410D0998AA
:1002E00024050003000B204309900B980003000B2A
:1002F00020430B9050181C494018002201901446CE
:10030000104605E0002001460DB0F0BD032801DADB
:10031000034600E003239C46C11A0AAE0AE05F00D0
:1003200008ADED5B4F00F75B7D430027AA187C41C9
:10033000491C5B1E6145F2DD410004AB5A522104A9
:10034000120C0A43240C401C0828DFDB01980290A1
:100350000099704601910090059B049A07990698B0
:1003600000F0A9F9D0E700000DFCFFFFF0B50C4646
:100370005C4085B0E40FE40703944C000026640859
:1003800059009446490802460296224321D062460B
:100390000A431ED06200570D4A000E032303550D79
:1003A000012402462C492405781B1B0B360B4018F0
:1003B00023432643614600901C46501AB44103D3A0
:1003C0000098401C009002E0921800985B410028C1
:1003D00003DA0020014605B0F0BD00200121090527
:1003E0000746864611E064461D46141BB54106D3F8
:1003F0006546521BB341744607430C43A646CD07DE
:1004000040084908284392185B4105460D43EAD14C
:100410001046184313D060461946504071400843B7
:1004200006D06046101AB34106D20122002306E02E
:1004300000220123DB0702E00122D243531000987F
:1004400074460105381C6141029C039D00196941F5
:1004500000F024F9BFE70000FD03000010B5002202
:100460009623114600F0E1F810BD00000EB50549D5
:100470000291002100910A460B46019100F01BF900
:1004800003B000BD33040000410040020122400AD5
:10049000D205090E80187F2901DA002070479629BD
:1004A00003DC9622511AC84070479639884070473D
:1004B0004A0009030123090B1B051943094B10B519
:1004C000520D9A4201DA002010BD064B34339A4295
:1004D00003DC9A1A00F07DF810BD034951188840DA
:1004E00010BD0000FF030000CDFBFFFFC20FD207CD
:1004F000400040080BD0C10D0723DB01C9184002A2
:100500000905400A1143C208400711437047002003
:100510000146704770B50446002903D00020202210
:10052000012310E0002801D00020C043C046C0468F
:100530000DE02546D5408D4205D30D469540641B00
:100540001D46954040191546521E002DF1DC2146EE
:1005500070BDF0B51FB40646002082B005464024A9
:10056000019100901BE0019922460F46304600F0B1
:1005700030F8049A059B801A994110D31046194609
:10058000224600F016F8361A8F41019722460120C4
:100590000021009F00F00DF838184D4100902046D2
:1005A000641E0028DFDC019B00982946324607B014
:1005B000F0BD10B5202A04DB0146203A914000200E
:1005C00010BD914020239C1A0346E34019439040FC
:1005D00010BD10B5202A04DB0846203AD040002187
:1005E00010BD0B46D340D0402024A21A91400843AE
:1005F000194610BD10B5202A06DBCB170846203A55
:100600001041C1170B4306E00B461341D040202494
:10061000A21A91400843194610BD002904DA401C73
:10062000490001D140084000704770B40024050C17
:1006300005D11024000402D1002921D01124050E77
:1006400001D100020834050F01D10001241D850FDE
:1006500001D18000A41C002801DB4000641C00299B
:1006600008D020252E1B0D46F540A14000D00121C9
:100670002943084301061B1B000ADB1D02D500208D
:1006800070BC7047DB05181880180029F8DA401C88
:100690004900F5D170BC40084000704710B5002BF0
:1006A00008DA0024401C614192185B411A4301D1D1
:1006B0004008400010BDF0B51FB482B005460C00E4
:1006C00003D0084602F0F2FE02E002F0EFFE203016
:1006D0000246009021462846FFF76BFF049B059ACF
:1006E00004460F4618431143084314D018461043DC
:1006F0001BD0009840210A1A18460599FFF769FF98
:1007000005460E46009A05990498FFF752FF0843E4
:1007100005D0012004E02046394607B0F0BD002096
:10072000C11705430E432C43374300990E986305C8
:10073000401A7905E40A00220C43FD0A0A3002D56A
:1007400000200146E9E70105101969410C9C0D9D47
:1007500000196941FFF7A2FFDFE700004A00090323
:100760000123090B1B0519430A4B10B5520D9A4280
:1007700002DA0020014610BD064B34339A4203DCF6
:100780009A1AFFF726FF10BD034BD218FFF711FF8F
:1007900010BD0000FF030000CDFBFFFF10B50029D6
:1007A00004DB0124E40740428C412146002B04DB9A
:1007B0001C460123DB075242A341994200D19042DB
:1007C00010BD0000064C0125064E05E0E36807CC8D
:1007D0002B430C3C98471034B442F7D3FFF774FC1A
:1007E000703E0008903E000880B5002007490122B5
:1007F000D306C3580B50001DC028F8D15007044938
:10080000086002F099FB002080BDC0460000002077
:1008100008ED00E0B0B584B024221D4800218154C9
:10082000012422051B4B1D6815431D601D6895435F
:100830001D601D6915431D6107258462C562016243
:10084000042507460C3732C78160134D0560FF252C
:10085000C235C561650745601B698161134001931D
:10086000019A03910291019100F06AF9002801D0E8
:1008700000F065F80520019020030290044801A9CA
:1008800000F0DEF8002801D000F059F804B0B0BD47
:100890002C010020301002400024014080B50548A2
:1008A0000549016000F016FA002801D000F047F871
:1008B00080BDC0466C0100200030024070B50D4D77
:1008C000002913D000220C4B04E0521C401C8A4229
:1008D00025460CD004786C40082502E034466D1E95
:1008E000F3D06608E407F9D05E40F7E72C4620BA5B
:1008F000000C70BDFFFF000001A0000080B505489E
:10090000C06B00F05BFA80BD80B50248006C00F05F
:1009100055FA80BD8802002070B5C46B056C0126B5
:10092000AE4066600468636040681028134600D0DB
:100930000B46A360102800D01146E16070BDFEE7B1
:10094000F0B587B0002406940594049403940294AF
:10095000DF4801680127394301600168394001918E
:10096000019901680226314301600068304001901E
:1009700001980F4D07212846224600F0C1FB05963D
:10098000049403970320029002AE2846314600F0FB
:10099000FFFA0594049403970420029028463146F8
:1009A00000F0F6FA2846314600F0F2FA07B0F0BD42
:1009B00000040050F0B581B004463420205C0128CA
:1009C00001D1022539E02746343701253D702168E1
:1009D0008A68A06BD20722D1812252009043801CEA
:1009E000A063CE68C86803229043C8600125E80769
:1009F0008B6803438B601640009600F089FB064627
:100A00002068816800290DD500F082FB801B032837
:100A1000F6D3A16B10200843022188430AE020216D
:100A2000084307E0C168009A1143C160A06B02212E
:100A30008843002500213970A063284601B0F0BD2D
:100A4000F0B583B00246002402943420105C0128E3
:100A500002D1022003B0F0BD1646343601203070BA
:100A60001768BB685B0715D4019660C90120009028
:100A7000A8402D4B08399E4213D1B96A8143B9620F
:100A800028460B3801282046019E07D80B2D26D07A
:100A90002A4825E0916B20230B439363347003B005
:100AA000F0BDBB6A0343BB62D06A08280CD37A69E5
:100AB000072002408968914206D07A6982437A61B0
:100AC000014078690843786128460B3801282046A0
:100AD000019EE3D80B2D09D00098800508E0164848
:100AE00012490A6802400A602046D7E70098C0050C
:100AF0000E490A6802430A600B2D2046CED10C48ED
:100B000000680C49FFF706FD0A2141430291029853
:100B100000282046C2D00298401E02900298002869
:100B2000F9D12046BAE7C04601100000082701406D
:100B3000CC00002040420F00FFFF7FFFFFFFBFFF00
:100B4000F0B581B000285BD0044606462436054641
:100B50003835806B002805D100203074E0632046D2
:100B600000F088F82868C00643D4206881684907E7
:100B70003FD4812149002A688A43911C29608168F9
:100B8000C9070CD1C16818229143A2680A43C26008
:100B90000F21090702698A43616811430161C16835
:100BA000324A0A40C260A16A491E4A1E91410903A5
:100BB000227E9303A27E009257031F43E3682269BB
:100BC0003B430B43911E4A424A4192001A433178FB
:100BD00049001143E27E012A18D1009A002A12D05E
:100BE000A26B20231343A363E26B01231343E3634C
:100BF0000CE02868102101430120296001B0F0BDFC
:100C0000012001B0F0BD012212041143E269FF236B
:100C1000C2339A4202D00A43216A1143C2680A438E
:100C2000C260E26A072A07D843690726B3434361D3
:100C30003240436913434361C0680D4A02408A420F
:100C400007D10020E063A26B0121114302229143EE
:100C5000D3E7A06B1021014302208143A163E16B24
:100C6000012001433C342546C7E7C04619C2FEFFB8
:100C7000E7FF3FC310B586B00021059104910391B1
:100C8000029101910068114A904201D006B010BD56
:100C9000012002050E4BDC681443DC60DC68144064
:100CA0000094009A1A6802431A601A68024000927F
:100CB0000391032002902020019005200007009955
:100CC00001A900F065F906B010BDC046002401403E
:100CD0003410024010B500280CD00446407900289A
:100CE00004D100202071204600F006F80120607138
:100CF000002010BD012010BD81B000680849884265
:100D000001D001B070470120000306490A68024380
:100D10000A60096801400091009801B07047C04620
:100D2000003002403810024010B52121425C0146DB
:100D30002031022A10D1026813680E24A3431360E5
:100D400013680124A3431360C26B006C23468340E5
:100D500053604C70002002E00422826301200022D4
:100D60000A7010BD70B52121415C02290FD10268C3
:100D700011680E2399431160136801218B4313609E
:100D8000434B1C461834A24206D00C0205E0042155
:100D900081630124204670BD1024054620351E1DA8
:100DA000B2420A4600D022461A6000242C706970B4
:100DB000416B002900D08847204670BDF0B581B056
:100DC000C36B046C1E6801680F687A0713D5042290
:100DD0001546A54035400ED00B689B0603D40B6822
:100DE0000424A3430B602A4B1C461834A1421FD095
:100DF0000124A4021DE002462032BD0723D50225AE
:100E00000095A54035401ED00B689B0605D40B68A5
:100E10000A24A3430B6001235370002313701C4A60
:100E2000134618339942009D25D001235B0223E02D
:100E300040241D1DA94200D022461A60C16A002923
:100E400022D101B0F0BD3D07FBD50825A5403540B6
:100E5000F7D00D680E26B5430D6001210D46A54063
:100E60005D608163002313705170016B0029E8D02D
:100E7000884701B0F0BD2023141DA14200D01D46BB
:100E80001560816A0029DCD0884701B0F0BDC046FA
:100E900004000240F0B585B000282DD00446064677
:100EA000203602207070A2CC236860680190A06890
:100EB0000290E0680390206904900868104A02409C
:100EC0002A433A431A430198024302980243039883
:100ED0000243049802430A600025E5620948206342
:100EE00035700948081814210C3CFFF713FB8000EB
:100EF00020640120707000E00125284605B0F0BD97
:100F00000FC0FFFF00000240F8FFFDBFF0B581B049
:100F100005462020285C0224012826D028462030BF
:100F2000012606704778012F11D102244470002455
:100F3000AC6328680768B74307602846FFF7ECFCF6
:100F400028680168EA6A002A04D00E2207E000211E
:100F500001700AE004229143016002680A211143F2
:100F600001602868016831430160204601B0F0BD8E
:100F7000B0B5044600F0CCF80546601C02D08148AC
:100F80000068041900F0C4F8401BA042FAD3B0BDB9
:100F9000F0B58AB005900B68002B00D1A5E00D4696
:100FA00053480121059A82420291084600D002204E
:100FB0000521090700248A420994009400D000907A
:100FC000099804460890029A07950EE0314379602B
:100FD0002B681846D0400999091D0991A41C08994D
:100FE00008310891521C00287FD0501E029F0690A5
:100FF00087403B40ECD00492039368681021014382
:101000001229059E10D11C20099908400F2181400A
:10101000069BDD08AD0075192B6A8B43079909699A
:10102000814019432962079D03221146A14033687C
:101030008B436868054601921540A5401D43356005
:10104000C943122814D8012383402C4D2B420FD0C2
:10105000059EB3680B40079DED68A5401D43B56034
:10106000C306DB0F069DAB407568BD431D4375602D
:10107000059EF3680B40079DA968A1401943F160E4
:10108000C000039E049AA3D51820089908400F2198
:101090008140069B019A9343164FFB181D6E8D43AA
:1010A000009981402943079D1966134801686868C3
:1010B000C30301D5314300E0B143049A0E4B1960DC
:1010C0005968830301D5314300E0B1430A4B5960AD
:1010D0003968C30201D5314300E0B1433960796812
:1010E000800200D572E7B14371E70AB0F0BDC04697
:1010F000000400500018024080180240060006005C
:10110000002A02D01822815070472822815070474F
:10111000054800687047C0461A48006802490A68D6
:10112000101808607047C046D804002080B503201E
:1011300000F008F8002801D0012080BD00F024F85C
:10114000002080BDB0B505460E4801680124002985
:1011500016D07D20C000FFF7DDF901467C4800680D
:10116000FFF7D8F900F084FB032D09D8002807D138
:101170000024E0432946224600F020F8714805602B
:101180002046B0BDD400002082B009484168012249
:1011900011434160416811400191019911070268B2
:1011A0000A430260006808400090009802B070474F
:1011B0003C10024080B501F003F880BD80B501F01D
:1011C00009F880BDF0B583B000284AD00D460290E2
:1011D00059480068012101910840A84214D256499B
:1011E00008680126B04328430860544CFFF790FF7D
:1011F0000746514800683040A84205D0FFF788FFF5
:10120000C01BA042F5D993E0029C20688107784B6F
:101210000DD5410704D5072109031A680A431A604E
:101220000F2109021A688A43A16811431960C00797
:101230001AD14148016801200140A9422ED93E4AF5
:101240001168814311603D4CFFF762FF05463A4843
:101250000068C00722D0FFF75BFF401BA042F6D911
:1012600066E0012003B0F0BD6668042E44D8B100EA
:1012700001A251588F46C0468D120008DD120008A9
:10128000EB120008F9120008FD120008194608398F
:1012900009684905019835D403B0F0BD029A107869
:1012A000400707D507200003514B19688143D068D8
:1012B0000843186000F05EF84D49096889093C222E
:1012C0000A401F4989581F220A40D040204908601F
:1012D0001C480068FFF736FF03B0F0BD1946083917
:1012E000096889030198D7D50CE0194608390968BF
:1012F00089010198D0D505E0996D00E0596D890705
:101300000198C9D5196807229143314319600B4FE1
:10131000FFF7FEFE06463648006838210140606847
:10132000C000814285D0FFF7F3FE801BB842F2D99E
:10133000032003B0F0BDC046002002408813000027
:10134000F03D0008D8000020014800687047C04602
:10135000CC00002080B5FFF7F7FF25490968890A0E
:101360001C220A40024989581F220A40D04080BDF1
:10137000303E00081E4908688006400F06D0086805
:1013800038221040082811D11A487047081F083920
:10139000096800680004400F042800D9002080007C
:1013A000164A10588904490FC84070470868104011
:1013B00010280ED14868C00717D1081F0068000424
:1013C000400F042800D9002080000C490858400034
:1013D00070470B6813400120C003202B04D009681C
:1013E0001140182900D00020704703487047C046BC
:1013F0000810024000366E01006CDC02DC3D000883
:10140000F0B585B00127002800D1C7E1029703900D
:101410000078C007FD4F1FD103980078800747D49C
:1014200003980078000773D403980078400700D42D
:101430009EE1F64A906838210140202900D0B9E0A9
:10144000D06D800700D490E10398C068002800D0D8
:101450008BE10020012789E1B8683822024011465B
:10146000103948424841F968082A61D001405FD1EB
:1014700003984668002E08D08068002800D138E123
:1014800039690C22914301433961052000048642E9
:1014900000D100E1012001048E4200D101E1E949BF
:1014A000491E3A680A403A60810438688843FAE085
:1014B000E3498868C968012739403826064010206A
:1014C0007040411848424841002E3CD000283AD193
:1014D000DB4E3068039A5169002900D1C8E007212A
:1014E000C902884391690143316038023168014380
:1014F0003160BC02FFF70CFE05463068204200D088
:10150000EFE0FFF705FE401B0228F6D9032745E16F
:10151000CB4A906838210140182933D1106E8007DA
:1015200082D50398006A002800D07DE7029F35E14C
:101530003868800300D46FE703984068002800D023
:101540006AE7029F2AE1BE4800684005039B03D575
:101550005869002800D121E1BC02B94A5068B94954
:101560000140D86908435060FFF7D2FD0546B448F2
:10157000006820425CD1FFF7CBFD401B0228F6D962
:1015800003270BE1106E0399096A002900D1B2E02C
:10159000012108431066FFF7BBFD0546A848006E11
:1015A000800700D540E7FFF7B3FD401B0327022863
:1015B000F4D9F3E001263107D06B0840019006D141
:1015C000D06B0843D063D06B08400490049800911E
:1015D000A04F3868C0050FD4340238682043386003
:1015E000FFF796FD05463868204205D1FFF790FDCC
:1015F000401B0228F7D9A6E00398C768002F0BD03C
:1016000000698103890F00D17004032109048C4B08
:101610001A698A4302431A61894A052F7DD0012F36
:101620007FD0D06DB043D065D06D042188437AE07F
:10163000002E15D10720C002814C216881430398F8
:10164000806908432060FFF795FEA16889093C2264
:101650000A407D4989581F220A40D0407B490860D2
:101660007B480068FFF76EFD002800D096E0D7E6C3
:10167000390288433060BC02FFF74AFD05467048D6
:101680000068204200D1CBE6FFF742FD401B032754
:101690000228F4D982E0012081043A680A433A60C2
:1016A0000104386808433860FFF732FD0546012021
:1016B0004404002E10D03868204200D0ACE6FFF77A
:1016C00027FD401BC828F6D9032767E0FFF720FD58
:1016D000401B0327C82861D8594800682042F5D12B
:1016E0009AE67068574901400398C06908437060E2
:1016F00096E6029F52E0012188431066FFF708FD3D
:1017000005464F48006E800700D48DE6FFF700FDC8
:10171000401B03270228F4D940E0D06D0421014387
:10172000D165D06D3043D0654B4EFFF7F1FC0546D7
:10173000434C002F0FD0E06D80070FD4FFF7E8FC7B
:10174000401BB042F7D9002003270FE0FFF7E0FC71
:10175000401BB042F7D8E06D8007F7D4019800280D
:1017600003D1E06B00998843E0630120002815D085
:101770000398406A002810D0314B996838220A40FB
:10178000102A0ED10128029F08D02D48C0680127D9
:1017900038400399896A884200D10027F8B205B021
:1017A000F0BD0124220619689143196066060228DB
:1017B0000FD102940192FFF7ABFC0546204C206844
:1017C000304217D0FFF7A4FC401B03270228F6D9AC
:1017D000E4E7D868A043D860FFF79AFC04461848AD
:1017E00000683042D9D0FFF793FC001B0327022882
:1017F000F5D9D3E7039DA86A002809D100F00CFDB4
:101800001649884204D2029FC8E7C0460010024031
:10181000E06802998843A96A0143E1602068019960
:1018200008432060FFF774FC044605480068304216
:10183000B3D1FFF76DFC001B03270228F5D9ADE7F4
:10184000001002400000FFFFF03D0008CC00002027
:10185000D800002000700040881300000024F4002D
:1018600002490A6802430A607047C0461C000140F2
:1018700080B500F0DDFC80BD70B53C22825C012AA1
:1018800001D1022070BD03463C3300221A703F2371
:101890001B02CC689C430F239D028E68AE432643F7
:1018A000DB024C689C43344307231B030D689D43B4
:1018B000254303235B030C699C432C434B6923435F
:1018C0000124A403A343C969194300684164104675
:1018D00070BD0000B0B53C22825C012A01D102201B
:1018E000B0BD02463C3202235370012313700068DE
:1018F00044687025AC430D68254384684560DC4D21
:10190000A84202D0054DA84204D18025AC434968C5
:1019100021438160002010705370B0BD000400406E
:10192000B0B5002814D0044605463C356878002838
:1019300004D100202870204600F00CF802206870C6
:1019400001CC214600F048FD012068700020B0BDA8
:101950000120B0BD81B00068C549884201D001B006
:1019600070470120C00205490A6802430A600968FD
:1019700001400091009801B07047C04640100240FD
:10198000F0B581B004463C20205C012802D1022041
:1019900001B0F0BD26463C3602207070012737703A
:1019A00020688268294B134083600A683F2A14DD4F
:1019B0005F2A19DD602A28D07B039A422CD0702A36
:1019C0003ED14A688D68CB68294600F056FD2068F4
:1019D000816877220A43826032E01F2A0FDC002AE6
:1019E00011D0102A0FD02BE0402A21D0502A27D125
:1019F000CA68496800F040FE206850211EE0202A95
:101A000001D0302A1CD1114618E0CA68496800F09C
:101A100044FE2068602111E04A688D68CB68294641
:101A200000F02BFDB80321688A6802438A6007E052
:101A3000CA68496800F020FE2068402100F028FDB7
:101A400000203070777001B0F0BDC0468800FFFF05
:101A50003C22825C012A01D10220704702463C32BE
:101A60000223537000684161002010700121517001
:101A70007047000080B586B0002105910491039164
:101A80000291019100687A49884201D006B080BD78
:101A90000120C1020D4AD3680B43D360D3680B40C9
:101AA00000930099116802231943116011681940CD
:101AB00000910493039002930821019105900098EE
:101AC000034801A9FFF764FA06B080BD3410024054
:101AD00000040050F0B581B005463C20285C012888
:101AE00002D1022001B0F0BD2E463C3602207070BB
:101AF00001273770C241032A49D80C467A4412792B
:101B000052009744011122312868214600F0C8FC98
:101B10002868816908220A4382618169042291430D
:101B20008161216918302FE02868214600F0F6FC19
:101B3000F902286882690A438261B90282698A438C
:101B400082612169090218301EE02868214600F0F0
:101B500021FD2868C16908220A43C261C1690422C3
:101B60009143C16121690EE02868214600F050FDD3
:101B7000F9022868C2690A43C261B902C2698A438C
:101B8000C261216909021C3002680A430260002018
:101B90003070777001B0F0BDB0B5002814D00446A5
:101BA00005463C356878002804D10020287020467E
:101BB00000F00CF80220687001CC214600F00CFC0B
:101BC000012068700020B0BD0120B0BD704700004A
:101BD000B0B5054600680124224600F041FC2868A3
:101BE0002349884205D02349884202D022498842AD
:101BF00003D1E103426C0A434264816807220A4030
:101C0000062A02D00168214301600020B0BDC04611
:101C100010B504460068002200F022FC2068134939
:101C2000134A904205D0134A904202D0124A904281
:101C30000BD1026A0A4208D1026A104B1A4204D13F
:101C40000122D203436C93434364026A0A4207D1E0
:101C5000016A0A4A114203D10168012291430160DD
:101C60003D2001212154002010BDC046111100006B
:101C7000002C0140004801400044014044040000A1
:101C8000B0B50446006841694522A25C2546453549
:101C9000212A0DD1802211400AD04169914341612E
:101CA000E06B002801D0FFF73FF8204600F02AFE45
:101CB000206841696A78222A0DD1402211400AD059
:101CC000416991434161206C002801D0FFF72CF855
:101CD000204600F0FDFD0020B0BD70474521415C6D
:101CE000453040780843C0B270470000F0B581B07D
:101CF000044602681168D0682F230B405269202BDC
:101D000007D12023034004D0204600F005FE01B097
:101D1000F0BD0B0750D001252A402E023746203750
:101D20000740D71948D0CF0704D0064002D0A66C90
:101D30002E43A6644D0705D5002A03D0A56C0226C4
:101D40002E43A6648D0705D5002A03D0A56C042672
:101D50002E43A664002B05D5002A03D0A26C0823CD
:101D60001343A364A26C002A2ED00840800602D53B
:101D7000204600F0D1FD2068406940252840A16C34
:101D800008220A4010182BD0204600F0A1FD206840
:101D9000416949061FD54169A9434161206C00286A
:101DA00019D013494163FEF7DDFF00280CD0206CE9
:101DB000416B884701B0F0BD0840010606D44006DB
:101DC00002D5204600F092FD01B0F0BD204600F0A3
:101DD0003BFE01B0F0BD2046FFF77FFF01B0F0BD34
:101DE0002046FFF77AFF0020A06401B0F0BDC04696
:101DF000FB270008F0B581B000282ED00446054628
:101E000044356878002804D100202870204600F06E
:101E100027F82420687001277E032068C168B14339
:101E2000C160204600F0ACFD206A002802D02046A8
:101E300000F0CCFCF80221680A6982430A61486913
:101E4000082290434861C8683043C8600020A064FD
:101E500020216970A97001B0F0BD012001B0F0BD72
:101E6000F0B587B0012461043C4882680A4382606F
:101E700082680A4002920299016821430160016868
:101E8000214002910299C1682143C160C16821408B
:101E900002910299416821434160406820400290CC
:101EA00002980920069003200590049402210391D2
:101EB00002900520000702A9FFF76AF86103BA4CF7
:101EC000002680271020264D2560221DC1C22661D4
:101ED0006661A6610191E1612046FEF7DBFF002803
:101EE00001D0FEF72CFDB2486062C4631D4C14356E
:101EF00060C426606760A660E66026610198606144
:101F0000083C2046FEF7C6FF002801D0FEF717FD6B
:101F1000A748606204641448FFF7A2FC1C25002651
:101F20000124284631462246FFF748F92846FFF7A4
:101F300041F90925284631462246FFF73FF9284650
:101F4000FFF738F90A25284621462246FFF736F9D9
:101F50002846FFF72FF907B0F0BDC0463410024005
:101F6000080002407401002007080000F0B581B0AD
:101F700013460A4605464620295C022020293BD10B
:101F80000124002A39D0002B37D001263103AC6858
:101F90008C4204D12969002901D1D10730D12F46C3
:101FA000443739780129044627D00024AC642B87B4
:101FB0006A633E702220B870286C1349816211490F
:101FC000C1626A49016344632968091DFEF79EFFE7
:101FD00000942868016800914168009100993102DD
:101FE000C2680A43C2604169314341613C70416942
:101FF00040220A43426100E00446204601B0F0BDA1
:102000003446FAE7912800085928000870477047BD
:10201000F0B585B00E4605464520285C02212028F3
:1020200031D10120002E61D01746002A5ED0012256
:102030001403A868A04204D12869002801D1F00740
:1020400056D102942C4644342078012808464DD0BD
:10205000039321460024AC640A702120019148704A
:10206000FFF756F804906F862F86A8680299884279
:102070000CD1286900283446039B00D00024002896
:1020800005D1064603E0084605B0F0BD039B688E07
:1020900000281CD0184F0AE0307829684860761C68
:1020A000039B688E401E6886688E00280FD08021B2
:1020B0002846049A00F0F4FC00280FD1002EEBD142
:1020C0002088384029684860A41C0026E8E74021A1
:1020D0002846049A00F0E4FC002802D0032005B052
:1020E000F0BD0020019A10702021517005B0F0BDA4
:1020F000104605B0F0BDC046FF010000F0B581B04C
:10210000134604464520225C0220202A29D10125BD
:10211000002927D0002B25D0264644363278012AC4
:1021200005461FD063860025A5642386E162012051
:102130003070E06B0E4F0F4A8262C7620B4A026337
:102140004563212272702268121DFEF7DFFE4020D7
:10215000C0432168086035704869802202434A61A3
:1021600000E00546284601B0F0BDC0460B28000837
:10217000C72800089B28000880B5006809498842E4
:1021800000D080BD0848006840680028F9D10748A1
:10219000022101600648FFF773FD06480121017026
:1021A00080BDC04600440040B80100200400024049
:1021B00088020020D00000207047FEE77047000032
:1021C0001F21014001208840014908607047C04636
:1021D00000E100E0002805D40322034693430B4AA4
:1021E0009A1806E00F220240083A03239A43084B4C
:1021F000D2188007C00E8901C9B28140FF238340F5
:1022000010689843084310607047C04600E400E03F
:102210001CED00E07047000031480068C00A1C2136
:102220000140014840587047503E00087047000088
:10223000B0B5401E010E01D00120B0BD054D686053
:102240000024E0430321FFF7C5FFAC6007202860AE
:102250002046B0BD10E000E080B5FEF75DFF80BD18
:1022600070B590B005AD2C212846FDF75AFF01242A
:1022700020020A900F20059000260B960D960696D8
:102280000E94089604960396029601960A480068F2
:102290000A490140A00308180C902846FFF7B0F83F
:1022A0000496039602960720019001A82146FEF7A6
:1022B00089FF10B070BDC046080FFF1FFF1F000050
:1022C00007480168074A0A40074909681143012283
:1022D00053030B430360D006044908607047C046AF
:1022E000041002400000FFFF040FFF1F08ED00E094
:1022F00070470000B0B596B0002415941494139460
:102300001294119410940F940E940D940C940B94B9
:102310000A9409942D4880212D4D2E4AD34B0360F9
:10232000031D34C3046144618161089407940694D9
:1023300005940494039402940194FFF7F1FA0028A1
:1023400001D0FEF7FCFA61351295204812A9FFF77B
:1023500017FB002801D0FEF7F2FA1C48FFF71CFC1F
:10236000002801D0FEF7EBFA11941094174810A939
:10237000FFF7B0FA002801D0FEF7E1FA0A946020D6
:1023800009900B940C940D940E940F940F4809A986
:102390000422FFF79FFB002801D0FEF7D0FA059436
:1023A000049403940294019408940120400306903D
:1023B000064801A9FFF760FA002801D0FEF7BFFA2E
:1023C0000248FFF757FB16B0B0BDC046FC01002025
:1023D0009F0F00003F06000010B50468A34A90421A
:1023E00002D01C4B984204D170239C434B6823437A
:1023F00000E02346184CA04208DD90420CD09C4CD3
:10240000A04209D09B4CA04206D020E0114CA04233
:1024100002D0124CA0421AD103242402A343CC6858
:102420001C4380239C434B69234303608B68C36236
:102430000B688362904205D08D4A904202D08D4A4B
:10244000904201D1096901630121416110BD1C461F
:10245000E7E7C04600040040FF2B01400020004099
:1024600010B51F230B4001219940046A8C4304627C
:102470009A40016A1143016210BDB0B5FF242402E5
:102480008568A54311431A020A432A438260B0BDFE
:10249000826870239A430A43072111438160704781
:1024A000F0B581B0026A01239A430262026A0223F4
:1024B0009A438E68164344680A68009283696B4F9A
:1024C000B84205D06A4DA84202D06A4DA84208D150
:1024D0000C25AE43CD68042295433543B84203D161
:1024E00008E03546B84205D0614A904202D0614AC0
:1024F000904207D10322120294434E698A6926430F
:10250000164300E02646466073229343009A134325
:10251000836149684163056201B0F0BDF0B581B0E7
:10252000026A10239A430262026A20239A438B684C
:102530001E01164344680A68009282694B4FB842F4
:1025400003D03546B84209D10EE0C025AE43CD6870
:102550002D0140239D433543B84205D0444B98425A
:1025600002D0444B984208D103239B029C434B6901
:102570008E699B002343B4001C43446073231B02F9
:102580009A43009B1B021343836149688163056280
:1025900001B0F0BDF0B581B001221302046A9C4382
:1025A00004625202036A93438A6816021E43446817
:1025B0000A680092C3692D4FB84203D03546B8422D
:1025C0000AD10FE00325AD02AE43CD682A020F4DBC
:1025D00015403543B84205D0254A904202D0254ADD
:1025E000904208D10322120394434A698E69120172
:1025F000224334011443446073229343009A1343EB
:10260000C3614968C163056201B0F0BD00FBFFFF13
:10261000F0B581B001221303046A9C430462036A8B
:1026200044688D6800950E68C569104FB84205D0A2
:102630000F4FB84202D00F4FB84205D19703BC43A9
:102640004F69BF01274300E02746476073242402F7
:10265000A54334022C43C4614968016451038B4390
:10266000009909031943016201B0F0BD002C01403B
:102670000048014000440140B0B5036A046A0125E6
:10268000AC4304628469F025AC43120122438261A9
:102690000A2293430B430362B0BD10B5036A1024B2
:1026A000A34303620F231B0384699C431203224349
:1026B000036A8261A022934309011943016210BD9C
:1026C000F0B583B000282BD0002929D01646019000
:1026D0000291FEF71DFD2A4C2178002922D000200E
:1026E00020702B4D286801680126B14301602748FE
:1026F0000199029AFFF702FD002803D026702BA053
:1027000001F05CFB204800680068400608D51F48BF
:10271000FFF7E4FA20282AD028684068002826D04D
:1027200003B0F0BD8619184D184F0AE00220154974
:1027300008603846FFF7A4FA0120207020780028AE
:10274000CDD128680068400609D53846FFF7C6FA9B
:102750002028EBD00E48006840680028E6D0FEF73D
:10276000D7FCB042EAD90BA001F028FBE1E705480D
:10277000022101600548FFF783FA267003B0F0BD1F
:10278000D0000020040002403C020020880200200B
:10279000B8010020444D41207472616E736D6974FC
:1027A0002074696D656F75742E0000004661696C58
:1027B000656420746F20737461727420444D4120ED
:1027C0007472616E736D69742E00000010B5202163
:1027D000415C490610D501210A0301684B69934306
:1027E000446A23434B61944206D1032252034B694E
:1027F0009343806A1843486110BD80B5406A002148
:1028000041874186FFF769FA80BDB0B5446A206808
:1028100040694521615C25464535212907D1802144
:10282000084004D000206086204600F06BF8206845
:1028300040696978222907D14021084004D000204E
:102840006087204600F044F8A06C10210143A16489
:102850002046FFF742FAB0BD10B50146406A09684C
:102860000968890611D40021418701210A02036801
:10287000DC689443DC605A698A435A615969402292
:1028800091435961462120224254FFF7BFFB10BDFE
:1028900080B5406AFFF7BBFB80BD80B50146406A4A
:1028A0000968096889060BD40021418600684169DE
:1028B000802291434161C16840220A43C26080BDC9
:1028C000FFF75AFC80BD80B5406AFFF775FC80BDFC
:1028D000092149010268D3688B43D3605169012300
:1028E00099435161462120224254704780B50168C6
:1028F000CA6840239A43CA60452120224254FFF708
:102900003BFC80BD0168CA68C0239A43CA60452168
:10291000202242547047000070B54621415C2229B4
:102920001BD101210A038368934202D10269002A64
:1029300006D0426B531C436303685B68137007E067
:10294000426B931C436303685B68544C1C401480C7
:10295000428F521E4287120400D070BD024646329A
:102960000368DC682025AC43DC600C02DE68A6430B
:10297000DE605C698C435C611570FFF747FB70BDDE
:10298000F0B581B0044601214A030068036993430E
:10299000E2681A4302612269C3682A4D1D40A36898
:1029A000134362691A432A43C260CE024169B143AC
:1029B000E769394341610321090242698A43A169F8
:1029C00011434161FEF7C6FC0146192048436321CB
:1029D000CD436168B74219D14900FDF79BFD06461A
:1029E00064273946FDF796FD00904543A819C000BD
:1029F00032303946FDF78EFD0721014040001F228D
:102A00001201024000980001101816E08900FDF73D
:102A100081FD064664273946FDF77CFD009045435D
:102A2000A819000132303946FDF774FD0F2101402D
:102A3000F0220240009800011018014320688160D4
:102A400001B0F0BDF3E9FFFF4521415C21291AD116
:102A50000121090382688A4202D10169002905D057
:102A60000168C26A13784B60511C06E0C16A0A888B
:102A70000A4B134002685360891CC162418E491E93
:102A80004186090400D070470068C16880229143E4
:102A9000C160C16840220A43C2607047FF01000064
:102AA000F0B583B00C460546006800680840002178
:102AB0000291A04202D1029803B0F0BD1E46174613
:102AC00028464430019004E0286800682040A04275
:102AD000F1D0701CF8D0002E04D0FEF719FBC01BFB
:102AE000B042F1D90D2040012968CA688243CA600A
:102AF00048690122904348612020019A50700021CA
:102B000011709070032003B0F0BD000080B526481E
:102B1000FFF7ECF880BDC04610B582B0D948006818
:102B20003649884238D10968C9061DD5002101916E
:102B30000168019141680191019901684068D14C97
:102B40002046FFF79DF81748006840684042C74993
:102B500008700878411E8841C349087001200202AC
:102B6000C3492046FFF702FA0F4800680068400694
:102B700012D5C448FFF7B2F8202804D00B480068EB
:102B80004068002808D10A4802210160BD48FFF7CB
:102B900077F8084801210170BA48FFF7A7F802B09A
:102BA00010BDC046740100203C020020B801002086
:102BB00004000240D000002010B5B24C00200F49A4
:102BC0000C224B23DB010AC420606060A060E2603D
:102BD0002061083C2046FFF70DF9002801D0FDF7E1
:102BE000AEFE2068C16810220A43C26001200202C2
:102BF0009F492046FFF7BAF910BDC0460044004087
:102C0000F0B587B00090514802780291097800250C
:102C1000EE430391914201D2069232E00078019096
:102C2000059504960692002A1BD00598C1B200981B
:102C300044180698471E00234549049A07E0641C7F
:102C4000491C7F1E5B1C06988342324609D20E78CF
:102C50002078B04204D1002F2E46F0D01646EEE781
:102C60001646701C0DD10599491C029800780390F6
:102C7000019A801A0591CDB2A842049ED2DA019839
:102C80000690701C0ED00698301800990B5CC01886
:102C9000C11C304804780819039A904208D90320CF
:102CA00007B0F0BD38A001F089F8022007B0F0BDF0
:102CB0000593002C0DD0C8B200990D180027264AA4
:102CC0003946EB5DD05D834237D1491C7F1CA14260
:102CD000F7D3009FBC1906982018059E81194A78E1
:102CE000897809028D18711CC9B2FDF7E7FD85428C
:102CF00020D1002E3D46154F324610D0641C0026D0
:102D000038782018825DAA551CA0314600F0BCF826
:102D10000A20FEF72DF9059A761CB242F0D1A818C8
:102D2000029C2178891A1546FDF7FBF925700020D1
:102D300007B0F0BD012007B0F0BD08A039461A4623
:102D400000F08CFB042007B0F0BDC046CB00002093
:102D5000C8000020C7000020C4000020456E642089
:102D60004D69736D61746368206174206279746564
:102D70002025643A2025580D0A0000005025643DA6
:102D800025640D0A00000000486561646572206ECC
:102D90006F7420666F756E640D00000070B581B0B1
:102DA00000900098002822D0E12080001149124AAA
:102DB00005E0009CE31A0093009B002B17D0009BBA
:102DC0008342034600D8009B1724E5435D430C680B
:102DD0002D1905D40E68A642EBDAAE42FADAE8E71E
:102DE000AD180E68A642FCDDAE42FADCE1E701B0A8
:102DF00070BDC04618E000E0C05D0000F0B5C1B095
:102E0000044619480078012826D1184F387840AD7B
:102E10002870012001026E463046FDF782F93A78AB
:102E200013493046FDF764F930462946FFF7E8FEBE
:102E3000002803D00FA000F027F805E040A8017893
:102E40006846224600F01CFA39780948FDF769F90E
:102E50000020387004490870012002020948044922
:102E6000FFF784F841B0F0BDD4020020D503002064
:102E7000D5020020676574206E6F7468696E670DF7
:102E80000A0000008802002083B0B0B581B004467B
:102E900005A80EC005AB009301200102074D28468E
:102EA000224600F0EBFA81B2054A2846FFF708FCFB
:102EB00001B0B0BC01BC03B00047C046D60300203F
:102EC000FF040000F0B583B01E461746FDF7D8F9A1
:102ED00004460D460C980D990A9A02920B9B019399
:102EE000FDF7CEF902460B4620462946FDF7D6F9F6
:102EF00004460D46089809993A463346FDF7C0F94D
:102F000002460B4620462946FDF730FA029A019BFD
:102F1000FDF712F903B0F0BD80B582B001907D20BD
:102F2000C300044801A90122FFF772F8019802B01A
:102F300080BDC046E000002090B0FEF7F7F8FFF734
:102F40008FF9FDF7FDFCFFF737FEFFF7D3F9FDF72B
:102F500061FCFDF7A3FC1B4D042428462146FEF727
:102F600037FE2868142181631748FDF723FD01AD62
:102F7000284600F07DF8284600F020FA134D012283
:102F800028462146FEF7BCF832263046FDF7F0FF12
:102F90000FA0FFF779FF3046FDF7EAFF0EA0FFF71D
:102FA00073FF3046FDF7E4FF002228462146FEF776
:102FB000A7F801AC2046FFF721FF204600F006FAF3
:102FC000F7E7C046FC0100202C010020000400505F
:102FD00041540D0A0000000041542B4E414D453D27
:102FE00053686F636B3030310D0A0000B0B5144682
:102FF0000D4601460C48FDF78DFA1821FDF78AFAB7
:10300000811E0A4A914207D8421E17212960226078
:1030100012A000F023FAB0BD00202860206004A0B8
:1030200000F0CCFEB0BDC04600366E01FEFF0000D1
:10303000556E61626C6520746F2066696E642073E2
:1030400075697461626C652050534320616E642021
:103050004152522076616C7565732E005053433A8D
:1030600020256C752C204152523A20256C750A009F
:1030700010B5044600F0F6F8204600F0E1F8E169EA
:10308000204600F079F80021204600F001F810BD3C
:10309000F0B587B00C46416808291DD0042935D009
:1030A00000294DD100680768F86AFDF7DFF9054689
:1030B0000E462046FDF71AFA059604950022039263
:1030C00002922C4B019300921346FFF7FBFEFDF793
:1030D000EFF9786307B0F0BD00680768F86AFDF79C
:1030E000C5F905460E462046FDF700FA05960495FB
:1030F0000022039202921F4B019300921346FFF7A6
:10310000E1FEFDF7D5F9F86307B0F0BD0068076888
:10311000F86AFDF7ABF905460E462046FDF7E6F9DD
:1031200005960495002203920292124B019300929D
:103130001346FFF7C7FEFDF7BBF9B86307B0F0BD54
:1031400000680768F86AFDF791F905460E462046C3
:10315000FDF7CCF905960495002203920292054BE7
:10316000019300921346FFF7ADFEFDF7A1F9386415
:1031700007B0F0BD00005940F0B583B00B460546DE
:1031800000240294019402A901AA1846FFF72EFF19
:10319000029E711E1148814218D2019F791E814200
:1031A00014D203CD083DFEF733FD286801688E6216
:1031B000C760CF620121FEF74BFC002802D00DA0B2
:1031C00000F04CF903CDFEF703FD03E004A000F08E
:1031D00045F90124204603B0F0BDC046FFFF0000C2
:1031E0004661696C20746F207365742070776D463A
:1031F000726571004661696C20746F20536574209C
:1032000070776D4672657100B0B504462620205C6B
:10321000A18C41432187216A2046FFF739FF208F87
:10322000002808D00025A069401CFFF7B7FD6D1CE1
:10323000208F8542F7D300212046FFF729FFB0BD3C
:10324000082181840549064A28238361C2610162FD
:103250002621415CC90001877047C04600009642A4
:10326000A8610000012181827B49016102228281E3
:103270000422024B0360426081607047FC01002021
:10328000F0B581B015460F46064629A0FFF7FCFDB4
:103290000A20FDF76DFE0124002E46D0002F44D0F9
:1032A00030780024002840D170782627E855B0787F
:1032B000A862F078FDF7D2F8E86230792886707954
:1032C000FDF7CCF8686321A0FFF7DEFD64263046E9
:1032D000FDF74EFEE95D22A0FFF7D6FD3046FDF773
:1032E00047FEA96A23A0FFF7CFFD3046FDF740FE59
:1032F000E86AFDF7FBF8024623A00B46FFF7C4FD82
:103300003046FDF735FE298E23A0FFF7BDFD304680
:10331000FDF72EFE686BFDF7E9F8024622A00B468A
:10332000FFF7B2FD3046FDF723FE204601B0F0BDA9
:10333000506172616D65746572556E7061636B6921
:103340006E6728292E2E2E0D0A0000005061726132
:10335000204368616E6765696E672E2E2E0D0A0028
:10336000626F6F73745F4C6576656C3A2025640AF2
:1033700000000000747269675F57696474683A20DE
:1033800025642075730A0000747269675F543A20DF
:103390002566206D730A0000747269675F436F755C
:1033A0006E743A2025640A007573656E73655F5408
:1033B0003A202566206D730A0000000026210022B5
:1033C0004254426302868262C2627047B0B50446CC
:1033D000008E002817D000252046FFF715FF012199
:1033E000204600F017F82046FFF70EFF0021204688
:1033F00000F010F8E06AFDF747F8FDF7B9FD6D1C25
:10340000208E8542E8D3606BFDF73EF8FDF7B0FDF6
:10341000B0BD0000F0B581B00E4607460E4C022547
:10342000204629463246FDF76BFE72427241012664
:1034300020463146FDF764FEB86AFFF7AFFC00276F
:10344000204629463A46FDF75BFE204631463A467D
:10345000FDF756FE01B0F0BD000400500FB410B5EA
:1034600003A9044B044A029800F000F910BC08BC00
:1034700004B01847192F0008C00000207CB51D4675
:1034800016460C0001D0611E00E000210191009061
:10349000054B6A462946304600F0E8F8002C02D079
:1034A000009A002111707CBDA53D00082021020C6E
:1034B00001D010211046020A01D010460839020935
:1034C00001D01046091F820801D01046891E42080B
:1034D00001D0881E7047081A704702E008C8121F02
:1034E00008C1002AFAD170477047002001E001C1ED
:1034F000121F002AFBD17047F0B51FB486B009989F
:10350000089A030D0021024314D05148514A18185B
:10351000504305141198012810981AD0281A401CFD
:1035200000264D4F4D49009601910490002812DA73
:10353000444211E01198012449A3012801D11098B7
:10354000C1430698119A84600360C26041600BB069
:10355000F0BD4042E4E70446210500203F4A001C3C
:1035600051410391029012E0E00707D032463B46FA
:1035700001990098FCF792FE0191009032463B467B
:1035800010461946FCF78AFE06460F466410002CCA
:10359000EAD10498039B0028029A0999089806DA50
:1035A000FCF77CFE019B009AFCF778FE05E0FCF737
:1035B000DDFE019B009AFCF7D9FE04460E46002270
:1035C000284BFDF7EBF803D80020C043014607E085
:1035D0000022254B20463146FCF7AEFDFDF7BEF834
:1035E000102409E0002C0ADB0A220023FCF7B1FFBB
:1035F000079B30321A55641E02460A43F2D111224B
:10360000641C079B121B1C19119B012B03D0012367
:1036100008430ED10AE0084304D011201090002086
:10362000119077E71098151A6D1E0BE010988242E2
:1036300002DD00236D1C03E0824201DA00236D1ECF
:10364000002BEED0069811998260C16030C07EE7F1
:1036500001FCFFFF104D0000000014400000F03F8F
:10366000300000000000F0430000E03FFFB597B0DD
:103670000646002518E2252877D100242746FD4973
:10368000049400E00443761C32780120203A9040F4
:103690000842F7D130782A280ED00222307801462D
:1036A0003039092916D804990A235943303940186A
:1036B0001443761C0490F1E7189802C804911890FE
:1036C000002904DA01204003044348420490022008
:1036D0000443761C30782E2814D1042004437078DB
:1036E000761C2A2809D11898761C80C8189009E001
:1036F0000A214F43303FC719761C307801463039D4
:103700000929F5D930786C2810D006DC4C281AD05D
:1037100068280ED06A2817D104E0742813D07A28BC
:1037200012D110E00120400504430CE001210905FD
:1037300001E0032109050C437178814203D1012086
:1037400000052418761C761C3078119066280BD062
:1037500013DC58287DD009DC00287BD04528F6D022
:103760004628F4D047281AD1A5E118E0632835D0BF
:10377000642870D0652812D19DE170286CD008DCD7
:103780006728F1D069287BD06E280DD06F2806D12C
:10379000BAE073282ED0752871D0782859D01A9A9B
:1037A000199990476D1C7EE16002400F022809D0F4
:1037B00003280DD00428189801680DD00D60001D55
:1037C000189070E11898EA1701680D604A60F6E7F2
:1037D000189801680D80F2E70D70F0E718986A46B6
:1037E00001781172001D18900020507202A80090FC
:1037F000012005E0189802C8189000200091C043ED
:1038000061070DD5002101E00199491C0191B942E0
:1038100012DA8142F8DB009A515C0029F4D10BE006
:10382000002101E00199491C01918142FADB019AD2
:103830000099895C0029F5D1019904981A9B471ACF
:1038400021463846199A00F097FA0199401945180F
:103850000BE04FE02CE113E04EE000980099007877
:10386000491C00911A9A199990470198401E01909D
:10387000401CF2D1214638461A9B199A10E137E0D4
:103880000A200021009001916002410F022907D017
:10389000189A01CA1892C2179446032908D00AE060
:1038A0001898C01DC108C90005C91891944607E0C1
:1038B00000B2C2179446042902D140B2C1178C4607
:1038C00000226146944506DA0A46002140429141B1
:1038D0008C462D2102E0210504D52B216A46117367
:1038E000012103E0E10701D02021F7E7029155E033
:1038F0000A200AE0102008E0102000900021042097
:1039000004430191082703E0082000210191009061
:103910006002410F022907D0189A01CA18920022AA
:103920009446032908D008E01898C01DC108C900B2
:1039300005C91891944603E080B2042900D1C0B2B1
:1039400000210291210729D51199702906D0009AEA
:103950001021019B4A401A4305D00EE040216A46DF
:103960001173012108E06146014306D030216A4607
:1039700011731199517302210291009A0821019B40
:103980004A401A430AD16146014301D1610705D576
:1039900030216A46117301217F1E02911199582925
:1039A00004D035A10E910DA90D910DE037A1F9E7D5
:1039B0006146019B009AFCF7CCFD0E9B8C469B5CFC
:1039C0000D9A521E0D92137061460143F0D10D986D
:1039D00005A9081A20300190600703D501200004D2
:1039E000844300E001270198874201DD381A00E096
:1039F0000020019900904118029809180498401A73
:103A00000490E00306D421461A9B199A049800F00A
:103A1000B3F94519002706E003A81A9AC05D199961
:103A200090476D1C7F1C02988742F5DBE0030CD5A4
:103A300021461A9B199A049800F09EF9451904E052
:103A40001A9A3020199990476D1C0099481E0090D1
:103A50000029F5DC08E00D980D990078491C0D91BE
:103A60001A9A199990476D1C0199481E01900029D6
:103A7000F1DC63E109280100303132333435363767
:103A800038396162636465660000000030313233AA
:103A9000343536373839414243444546000000004A
:103AA00000F05AF94519761C3078002800D0E2E57C
:103AB00028461BB0F0BD600700D406271898C01D2B
:103AC000C108C90048680A680831C30FDB071891AC
:103AD000190001D09CA108E0210501D59BA104E0BB
:103AE000E10701D09AA100E09AA1430011985B0878
:103AF000109165280CD006DC452809D046281DD039
:103B0000472841D141E0662818D067283CD13CE0E5
:103B10000021112F01DB112000E0781C01910090A1
:103B200008A911A8FFF7E8FC139905910021119A43
:103B300015927F1C12980197009150E00120C00758
:103B400003900120019008A9009711A8FFF7D4FC69
:103B5000139A149905920022119B009212981593C2
:103B6000059A0192002901D0104602E0791C401804
:103B70000190381A01D5019804E04042401E00909F
:103B8000781C0190C01B029043E0012F00DA01274E
:103B90000021112F01DD112000E038460191009035
:103BA00008A911A8FFF7A8FC13990591119A002103
:103BB000129815920091019721070CD40599B942EA
:103BC00001DB019900E00191012904DD159A491EEC
:103BD000515C302906D0B84201DA011D05DA012115
:103BE000029115E00199491EEDE7002805DC0099D6
:103BF000411800910199091A03E0019A411C914270
:103C000000DD01910099401A401C02900120C0077C
:103C10000390200706D402990198814202DB00201C
:103C2000C043029000206946C87707AF012103987E
:103C30000337C907884224D0022011902B2012900C
:103C4000039800280CDA404203902D20129007E0E0
:103C50000A210398FCF75EFC30317F1E0390397017
:103C60001199481E11900029F2DC03980028EFD129
:103C7000791E129808703078202108404530BF1E08
:103C8000387006A8C01BC01D03901098007800284B
:103C900000D00120019941180298C0170918039813
:103CA00009180498401A401E0490E00306D42146E7
:103CB0001A9B199A049800F05FF84519109800783B
:103CC000002803D01A9A199990476D1CE00324D557
:103CD00021461A9B199A049800F04EF845191CE0E9
:103CE0000098002807DB00990598884203DD1598A5
:103CF000405C199901E0199930201A9A9047009870
:103D00006D1C401C00900298401E0290002804D1B7
:103D10001A9A2E20199990476D1C0199481E0190FE
:103D20000029DDDC05E038781A9A7F1C1999904744
:103D30006D1C0399481E03900029F4DC21461A9B50
:103D4000199A0498ACE600002D0000002B0000003A
:103D50002000000000000000F8B5044600251E46C3
:103D60001746880404D405E039462020B0476D1C6E
:103D7000641EF9D52846F8BDFFB50446002581B07C
:103D80001E46C80301D5302700E02027880404D54B
:103D900005E038460399B0476D1C641EF9D52846E6
:103DA00005B0F0BD4A68002A06D00A68531C0B60B3
:103DB00010704868401E48607047000010B5044607
:103DC00001E0FFF7A9F82078641C03490028F8D126
:103DD0000A20FFF7A1F810BDC000002000093D0037
:103DE00000127A000024F4004086510100366E0172
:103DF00000000000000000000000000000000000C3
:103E000000000000000000000000000000000000B2
:103E10000100000002000000030000000400000098
:103E20000600000007000000080000000900000074
:103E30000000000000000000000000000000000082
:103E40000100000002000000030000000400000068
:103E500000093D0000127A000024F4004086510160
:103E600000366E0100093D0000093D0000093D00DB
:103E7000903E000800000020E0000000DA34000856
:103E8000703F0008E000002000080000EA3400084D
:103E90000000000000000000000000000000000022
:103EA0000000000000000000000000000000000012
:103EB0000000000000000000000000000000000002
:103EC00000000000000000000000000000000000F2
:103ED00000000000000000000000000000000000E2
:103EE00000000000000000000000000000000000D2
:103EF00000000000000000000000000000000000C2
:103F000000000000000000000000000000000000B1
:103F100000000000000000000000000000000000A1
:103F20000000000000000000000000000000000091
:103F30000000000000000000000000000000000081
:103F40000000000000000000000000000000000071
:103F500000000000070809030102030300127A00B1
:103F6000010000000100000004000000000000004B
:04000005080000C12E
:00000001FF
